{
  "transactions": [
    {
      "hash": "0x71ebd322e6c4c4342354b0b11f4fe2caa3e5954107ddb0076505424b2e60e53b",
      "transactionType": "CALL",
      "contractName": null,
      "contractAddress": "0x1000000000000000000000000000000000000004",
      "function": "setKey(suint256)",
      "arguments": [
        "4808126964507126855406015480764155071141914500595441171764208570041907376684"
      ],
      "transaction": {
        "from": "0x6346d64a3f31774283b72926b75ffda9662266ce",
        "to": "0x1000000000000000000000000000000000000004",
        "gas": "0xf4db",
        "value": "0x0",
        "input": "0x70df09330aa14dad19b11c95fd366db53bf02b8aceaf3c699b64751bf2ca401eeefd722c",
        "nonce": "0x0",
        "chainId": "0x1404"
      },
      "additionalContracts": [],
      "isFixedGasLimit": false
    }
  ],
  "receipts": [
    {
      "type": "0x2",
      "status": "0x1",
      "cumulativeGasUsed": "0xb146",
      "logs": [
        {
          "address": "0x1000000000000000000000000000000000000004",
          "topics": [
            "0xe09b54ab39b458cc6e350a9444815a294301d94eaa79ba68d8a2f9f9c7c0b4cc",
            "0x0000000000000000000000006346d64a3f31774283b72926b75ffda9662266ce"
          ],
          "data": "0x",
          "blockHash": "0xeb3e44cab50163bf8f577115614022febac6122997b4293e7d52ec9d31051735",
          "blockNumber": "0xd",
          "blockTimestamp": "0x19ae130f960",
          "transactionHash": "0x71ebd322e6c4c4342354b0b11f4fe2caa3e5954107ddb0076505424b2e60e53b",
          "transactionIndex": "0x0",
          "logIndex": "0x0",
          "removed": false
        }
      ],
      "logsBloom": "0x00000000000000000000000000000000000000000000000000000000000000000000000000000000000000000000000000000000000000000000000000040000000000000000000000000000000000000000000000000000000000000000000000000000000000000000000000000000000000000000000000000000000000000000000000000000000000000000000000000000000000000000000000000000080000000000000000000000000000000000000000022000000000000200400100000000010000000000000000000000000000000000000000000000000000000000000000008000000000000000000000000000000000000000000000000000",
      "transactionHash": "0x71ebd322e6c4c4342354b0b11f4fe2caa3e5954107ddb0076505424b2e60e53b",
      "transactionIndex": "0x0",
      "blockHash": "0xeb3e44cab50163bf8f577115614022febac6122997b4293e7d52ec9d31051735",
      "blockNumber": "0xd",
      "gasUsed": "0xb146",
      "effectiveGasPrice": "0xa87a1fb",
      "from": "0x6346d64a3f31774283b72926b75ffda9662266ce",
      "to": "0x1000000000000000000000000000000000000004",
      "contractAddress": null
    }
  ],
  "libraries": [],
  "pending": [],
  "returns": {},
  "timestamp": 1764714673797,
  "chain": 5124,
  "commit": "0eb9012"
}